:020000040800F2
:10000000D8080020750100087D0100087F01000864
:1000100000000000000000000000000000000000E0
:100020000000000000000000000000008101000846
:1000300000000000000000008301000885010008A6
:100040008701000887010008870100088701000870
:100050008701000887010008870100088701000860
:100060008701000887010008870100088701000850
:10007000870100088701000887010008910E000829
:1000800087010008510F0008E50F000887010008EC
:100090008701000887010008870100088701000820
:1000A0008701000887010008870100088701000810
:1000B0008701000887010008870100088701000800
:1000C00000F002F800F047F80CA030C808382418F7
:1000D0002D18671EA246AB4654465D46AC4201D180
:1000E00000F039F87E460F3EB6460FCC012633426B
:1000F00000D0FB1A3343A246AB46184784140000D5
:10010000A4140000103A02D378C878C1FAD8520774
:1001100001D330C830C101D504680C6070470000BD
:100120000023002400250026103A01D378C1FBD813
:10013000520700D330C100D50B6070471FB500F0E7
:100140002BFE04000020002101F04AF9401C6060F1
:100150001FBD10B510BD00F0FFFD1146FFF7EEFF0B
:1001600000F0A4FF00F02BFE03B4FFF7F2FF03BC86
:1001700000F086FE0748804707480047FEE7FEE795
:10018000FEE7FEE7FEE7FEE704480549054A064BA1
:10019000704700008F0E0008C1000008D802002040
:1001A000D8080020D8040020D804002070B50646E6
:1001B00000F0F2FC0468054630460A22002100F0F7
:1001C000EFFC2C6070BD000010B5024A00F020FD6D
:1001D00010BD00000000002001E004C0091F042938
:1001E000FBD28B0701D50280801CC90700D00270AA
:1001F000704700290BD0C30702D00270401C491E73
:10020000022904D3830702D50280801C891EE3E7FC
:100210000022EEE70022DFE77047704770470000DA
:100220000246C80FC00781434B0030B54B405B000E
:100230009B0D20D01923DB06C91801231B05994209
:1002400020DB0324A40704251346AB400BD3002B6B
:1002500004D1EB0613409B00E34204D4012464075D
:10026000002312195941FF231B0599420BD2C900E3
:100270000143500F09E0CB0204D5014308030243B8
:1002800005D0054830BDFF21C905084330BD0846EB
:1002900007210905884330BD0000C07FF0B5F94D46
:1002A0000C091E092C402E402F468BB0A7437DD051
:1002B000B543FCD0002E7AD0002CFCD00D465D401A
:1002C000ED0F2543AC1BFF25AD0464190894C5024E
:1002D000440DC9022143500DDC0204430120C00734
:1002E00001430443D2020191200C110C00958C466D
:1002F000010423468B430A9161460904E24D8A4377
:100300000991010A7D4449198039097805464D4310
:1003100001266D18F605751B6943C90C640B891C11
:100320004C436418B5012C1B250C2E04B4434C43DC
:100330004D43210C691889090591009DE90701D0F9
:100340000121C90704912C4601996708CD072F4365
:100350004C08059DE10B4D432D0C2946664675431F
:1003600002950D4645432E46029D7D1BB4410095E6
:100370000D465D4301942C0C2F040D465543AE46AB
:100380002D0C3D43029503947546049C2D04641B7B
:10039000049406D2029C039D641C002675410395BB
:1003A000029401AC70CC009F7D1B01E03EE162E154
:1003B000B44109040095079101940599A40861438B
:1003C000090C0C464443650BE7040C46664674432F
:1003D000A646640B3C43039502947446049DE404D2
:1003E0002C1B049406D2029C039D641C00267541BC
:1003F0000395029401AC70CC009F7D1BB441019425
:100400000C465C430095650FE7000C465443A64636
:10041000640F3C43039502947446049DE4002C1B36
:10042000049406D2029C039D641C0026754103952A
:10043000029401AC70CC009F7D1BB441AE09AF06A5
:10044000049DC900AD092F43049DA406AD06049583
:10045000079D344369180791059DE10B4D432D0C11
:1004600029466646754302950D4645432E46029D34
:100470007D1BB44100950D465D4301942C0C2F0467
:100480000D465543AE462D0C3D43029503947546EB
:10049000049C2D04641B049406D2029C039D641CDE
:1004A000002675410395029401AC70CC009F7D1B22
:1004B000B44101948C050694079C890A6118009543
:1004C0000791019C0599A4086143090C0D46454319
:1004D000680BEF040D46644665436C0B3C43049F78
:1004E000ED047D1BAC4602D20025641C6841009ED1
:1004F000019D371B85410846584301950C46460F20
:10050000C5005443600F28436546E4002C1B02D20B
:100510000025401C6E41019D3F1AB5412846BD098A
:10052000800628438446A009BF064E020699A40609
:1005300076180743079D002068410A9907901943E0
:100540000020099B00906046FF1913434041E20FD1
:1005500064003A43A4460446D71A8C41A04203D90A
:100560000120009020463A46C70F94184041624649
:10057000D20F2243644664000494009CBE4664008B
:10058000D71AA446044602978C417746002F01D122
:10059000A04204D96046401C8446029A2046C40FFB
:1005A000A64694184041049A0546D20F2243644659
:1005B0006400D31A8D417146002901D1A84202D9A5
:1005C00028461A46641C10430122002800D0164316
:1005D00061020020079B891904465C410223002C1C
:1005E00002DB491813466441089DCE0A2D145D199B
:1005F0004B056705E10A2C050D1908993E43C9070B
:100600006940002B08D0934006D30022761C51414C
:10061000002B01D1760876001C4A002D43DB1542E1
:1006200041D0AA433FD030460BB0F0BD06180D466E
:100630004D41174C7642AC411AD395181C465C418B
:10064000134A6D42A24113D3012252054C00D442F9
:100650000AD15C00D4420BD04B4002D59202114328
:10066000E2E749004908DFE75940C90FC90718E028
:1006700000200849D8E7054801420DD10342F7D0D0
:10068000F2E700000000FF07B41100000000F07F57
:100690000000E0FF0000F87F114859400143C012FC
:1006A00041400020C0E70123089A9B069A4205DCDE
:1006B000032252078918C90FC907B5E70522520757
:1006C0008918074A1143D2125140ADE770B515465B
:1006D0001C4602460B4628462146FFF7DFFD70BD4B
:1006E000FFFFFF7F1F22030C02D10F22000402D064
:1006F000030E03D004E00020014670470002083AD0
:10070000030F01D10001121F830F01D18000921E3F
:10071000002801DB4000521E120551184205C0128C
:10072000411810467047C10FC90700D0404201224E
:1007300092071143D6E701218907D3E7F0B58B4C27
:100740000F09254689B0BD437BD01D092646AE431F
:10075000FAD00E465E402740F60F3E43254071D04A
:1007600024012142FBD0FF24AD19A4042D1B0395C5
:1007700001252D05DB02DB0AC9022B43C90A2943E7
:100780001E010901040F130F050121431701880BF6
:10079000820391432D098C46A90B1E438A0395437E
:1007A000B30B9A0396433F09BA0B9403A7430296EF
:1007B0002E467E430497B6464E19D7190C4601962D
:1007C000544305977E43371B7646BF1B3601B6461A
:1007D000BE0B361900967646BC043719009C01D32F
:1007E000641C00946400002F01D001263443029E53
:1007F000049F754366467E430496760034196E0066
:1008000034190094029C019E1C196643751BAE4668
:10081000069465464519059C05956C4359437546F4
:100820000891691A0191049E01465143A41B049149
:10083000611A009C0791E10605D06109012211436C
:1008400002E072E06EE06109089D00272C0A2D0687
:100850006918049D7C412A0A2D066918019D624190
:10086000AC0DAD026D185441079A910D92025519C5
:100870006141029A644658435443069B059A5A4381
:10088000121A131B9A0E9B015B187A41010B00058B
:10089000C3185141220A200644195A419A4200D2F3
:1008A000491C01204002814203D315230226F6434E
:1008B00002E014230326F6432020C51AA940174658
:1008C000AF40DA400A4320460399D8400914731810
:1008D00019055118039A3843D2075140AC4009D04A
:1008E0000122944006D30022401C5141002C01D12A
:1008F000400840001E4A934212D3012203989206F8
:10090000904207DB0520400709181A480143C0122E
:10091000414004E0032040070818C10FC907002028
:1009200009B0F0BD0020F107FAE705180C464C416C
:1009300011486D42A04115D394181A465A410E48E9
:10094000644290410ED301204A004005824209D3FF
:100950005A00824206D35940C90F084AC9070020ED
:100960001143DDE700200649DAE700000000FF0739
:10097000FE070000FFFFFF7F0000E0FF0000F07FA8
:100980000000F87F0121C9050123411842001B0620
:10099000D3185B0E0AD0C1100722D206891840076F
:1009A0005242D14201D5520089187047090208D538
:1009B0000146002A03D0C10FC90700207047104626
:1009C0007047420202D00020024970470721090502
:1009D0000143F4E70000F87FF0B5FF252D04C609B8
:1009E000C209FF2704462E400137CB093E43484049
:1009F0002A402B400746002A6BD0002B69D0AA4220
:100A000067D0AB4265D0002800DA32460125ED05FB
:100A100029432C4309022002090AD21A4B0C7F24D5
:100A2000E31A434C000A7C44E35C7D24240412193D
:100A300014145B00A218884201D3521C00E040004D
:100A400049420C465C4324115C43DB016415E31806
:100A5000040A5C43C502200D0C4644436419250A70
:100A60005D432303EC0C0D46654300030019EB18AE
:100A70004C42A34201D35B18401CD4052018002B24
:100A800007D05B00C91804D3401C002901D14008DD
:100A900040003F2189048A4209D3002A08DC11065C
:100AA000090F04D0032149074018C00FC007F0BD4B
:100AB00001224100120689187F2252069142F6D285
:100AC00005214907C84201D59010F0BDFF20C0059F
:100AD000F0BD002F00DA32461648AA4207D2AB42D8
:100AE00005D21902090E17D0F80FC007F0BDFF2577
:100AF00063002D06AB42F9D84900A942F6D8AB42B3
:100B000001D1A942F2D0A94201D1002101E0610046
:100B10004908D0050843F0BD1102090EFBD0FF20A3
:100B20000243D005F0BD0A460146104654E70000D6
:100B3000120B00000000C07F1F22030C02D10F2205
:100B400000041CD0030E01D10002083A030F01D1AA
:100B50000001121F830F01D18000921E002801DBCB
:100B60004000521ED205511802125118192290400D
:100B700004D3491C002801D14908490008467047A0
:100B8000C10FC90700D04042012292071143D3E7A9
:100B900001218907D0E700000048704710000020BD
:100BA000F7B50F460026009C2578641C002D05D063
:100BB00000F056F80068405DC007F5D12B2D02D03B
:100BC0002D2D18D0641E3946029A204600F050F8A8
:100BD000002F04D03968A14201D100993960710514
:100BE000022400290BDA4042002803DDFFF7D4FF7E
:100BF0000460A007FEBD012080020643E3E7002851
:100C0000F8DAFFF7C9FF04600048FEBDFFFFFF7F71
:100C1000F8B515460E46040003D12C68002C00D10F
:100C20000CA4204600F088F80419207800280ED083
:100C300027463146384600F06EF80419207800281F
:100C400002D000202070641C38462C60F8BD0027BC
:100C5000FAE7000000000000004870471000002084
:100C600010B500F099F8001D10BD00BF7507000019
:100C7000F7B5154682B00027029C2078641C0197C6
:100C8000302802D0002D15D015E020780127641CF3
:100C9000782804D0582802D0002D09D00BE0002D70
:100CA00001D0102D07D1207800271025641C02E008
:100CB000082500E00A250026009610E0009901278B
:100CC0006943081829467143020C80B200908E18BF
:100CD0003804864201D3012001902078641C294603
:100CE00000F05EF80028E9DA0398002805D0002F0C
:100CF00001D0641E00E0029C04600198002806D028
:100D0000FFF74AFF02210160C81E05B0F0BD00993F
:100D100030040843F9E730B503461D78002D03D0B1
:100D20000A4603E0AC4201D1181A30BD1478521CB7
:100D3000002CF7D15B1CF0E730B503461D78002D81
:100D400008D00A461478521C002C03D0AC42F9D1CA
:100D50005B1CF3E7181A30BD7546FFF77DFFAE4602
:100D6000050069465346C008C000854618B020B546
:100D7000FFF70AFA60BCB64600260027C0C5C0C50A
:100D8000C0C5C0C5C0C5C0C5C0C5C0C5403D490877
:100D900049008D4670470000004870473000002031
:100DA0003A2800D23038202302469A43412A01D300
:100DB00010463738884201D30020C043704710B531
:100DC0000446C046C0462046FFF7CEF910BD0000DD
:100DD00082078B079A423FD170B5920F0AD0032445
:100DE00002780B78401C491C002A33D09A4231D13A
:100DF0002042F5D1214EF40104C808C9951B954342
:100E0000254018D19A420FD104C808C9951B9543B3
:100E1000254010D19A4207D104C808C9951B9543B3
:100E2000254008D19A42E7D012BA1BBA01209A4253
:100E300000D2404270BD12BA1BBA2DBA182410005D
:100E4000E0401900E140401A05D12E00E64002D1F1
:100E5000083CF4D1D01A70BD02780B78401C491CB4
:100E6000002A09D09A4207D102780B78401C491C0D
:100E7000002A01D09A42EFD0D01A70470101010137
:100E800001491820ABBEFEE72600020070477047FC
:100E900080B509480168C9070DD001680122914356
:100EA00001604448016A1143016201681143016015
:100EB000DC2000F083FA80BD100000400122910781
:100EC0002F238B62C723CB62C823181A8863486913
:100ED00010434861086990430861086810239843EB
:100EE0000860072000038B6983438B610F20C002D9
:100EF0008B6903438B6190028B6903438B610868A4
:100F0000082303430B60C8681043C8600868802248
:100F100002430A60704700002648002181620A49A6
:100F2000C1620A4941630121416102698A43026148
:100F3000826978231343836102688023134303602B
:100F4000C2680A43C2607047970800004C04000062
:100F5000B0B517490868C00706D1E7480269012AF9
:100F60000AD001210161B0BD0868012290430860E8
:100F7000E1480269012AF4D10E4B00225A625C69F1
:100F8000012214435C61D4431D6825401D60103963
:100F90000B6823400B60DD490B682024A3430B60E2
:100FA00005490B6813430B6001210161B0BDC046C8
:100FB00010100040000400400014004007482F219A
:100FC000C161074901628168012211438160416862
:100FD0009143416001681143016070470C1000406B
:100FE000E7030000B0B50F480168C90703D00168E6
:100FF000012291430160C0494A69012A0CD10122B2
:1010000093071C6814431C601C6A102525431D624D
:10101000103803689343036001204861B949886030
:10102000B0BDC0461014004009482F21C1616321A2
:1010300001628168012211438160416891434160EE
:101040000168114301609004E44908607047C0469C
:101050000C14004001204104114A13680B43136033
:1010600080035168014351600F2081040920C006AC
:1010700002688A4302600521C90402680A430260CB
:10108000FF210901426A8A43426211210901426A31
:101090000A43426203480449C1600D210160704760
:1010A00014100240003801408813000082B0924FB3
:1010B00000237B613B610124E004904D29690143D9
:1010C000296120038E4914390A6802430A6001939A
:1010D000FB608C4E3068FFF753FD0146706800F0EE
:1010E00095F9B860FFF7B6FF281F0168214301603A
:1010F00001688907FCD50F2189042A688A432A6080
:10110000296829600521C9042A680A432A60210642
:1011100002680A43026001688901FCD5286802213F
:101120000143296028680C2101400829FAD17F2059
:10113000000129688143296000F0FCF8B420FFF722
:10114000BDFEFFF7E9FEFFF739FFFFF76DFFA007D0
:10115000016821430160016A10220A430262E00330
:101160009E490860684E6B4C654D07E0674A106801
:1011700020210143116000206249886030688006A8
:1011800041D42068002800D1A5E0F96801284CD19D
:1011900000294AD15F4844682046FFF7C4FA5F4AF5
:1011A0005F4BFFF7CBFAFFF73BF80546FFF7EAFB8B
:1011B0005C4A5D4BFFF772F800225C4BFFF7BEFA0A
:1011C000FFF72EF8386253488068C117F963B86397
:1011D000BC614C48006860434E4CFFF7D1FC78621C
:1011E000FD615349FFF7F8FBB862B968FFF7F4FBFC
:1011F000434DF862E068C1177964386441488068FB
:101200000128BBD1B2E730688006FCD53189387837
:101210007E2824D83E4A1154421C3A70C9B20A2989
:101220001CD07E281046ACD119E0022808D1002934
:1012300006D1606838633348806801289ED195E7FD
:10124000032806D1606878632E488068012895D10C
:101250008CE72C488068012890D187E710460199D7
:101260002B4C21540846215C0A2906D03A18482301
:10127000D154401C8028F6D180203C4648340025BB
:10128000255480212248FEF7C5FF224805604560AD
:101290008560C5603D7020461F49FEF795FF002818
:1012A00012D07C680F2C0FDCFEF780FFA100194ADA
:1012B0005050601C786000201749FEF785FF002819
:1012C00002D07C68102CEFDB7D600D4D114C206846
:1012D000002800D059E761682868002902D0402121
:1012E000084301E0402188432860064880680128BF
:1012F00000D043E73AE7C0467000002004100240E7
:1013000014080048040000201C3801401400004864
:10131000C8000020480100207C150008E882FA96E9
:10132000395D663F333333333333D33F00408F402F
:101330000000AD4310B5012043041E490A46083A97
:1013400014681C4314600B6803430B600B68022491
:101350001C430C60830414681C4314600A68102347
:1013600013430B600B68202213430B608302092197
:10137000C9060C681C430C604B6893434B600B68B8
:101380000C24A3430B600B6808241C430C600B6AFD
:1013900013430B6203210902074A13688B4313604E
:1013A000410213680B4313600004116A0143116288
:1013B00010BDC0461C10024000040048401E0649F3
:1013C000C862002048620868012210430860500487
:1013D000024908607047C0460010004000E100E08C
:1013E00010B500290AD00878002807D005487844AD
:1013F000FFF7EEFC002801D0002010BD0248784421
:1014000010BD0000B2010000AA01000070B542004A
:1014100064414B005C41120E39D01B0E38D0FF2ABC
:101420003CD0FF2B3AD0D2187F3A40024902400A02
:10143000490A4518ED0106004E43000A090A4843CF
:101440000104731A4019190C4318990F04D05B0852
:10145000012149075B1A521CD80904D3401CF5032B
:1014600001D19D0607D0FF2A08D2D50506D0E40792
:101470002043401970BD0125A843F4E7002A01DC90
:10148000E00770BD2402FF202043C00570BD1B0E85
:10149000FF2A03D0FF2B01D0E00770BDFF263606E0
:1014A0004500B54206D84D00B54203D8D218FF2AF0
:1014B00000D0E7E7004870BD0000C07F80807F7EDD
:1014C0007D7C7B7A797877767675747372717170BA
:1014D0006F6E6E6D6C6C6B6A6A696868676666656C
:1014E0006464636362616160605F5F5E5E5D5D5CFA
:1014F0005C5B5B5A5A59595858575756565555556B
:101500005454535352525251515050504F4F4F4ECA
:101510004E4D4D4D4C4C4C4B4B4B4A4A4A49494918
:10152000484848474747474646464545454444445A
:101530004443434343424242424141418182838486
:1015400085868788898B8C8D8E8F919293959697BF
:10155000999A9C9D9FA0A2A3A5A7A8AAACAEB0B241
:10156000B3B5B7B9BCBEC0C2C5C7C9CCCED1D4D73C
:10157000D9DCDFE2E6E9ECF0F3F7FAFE2C0000003C
:10158000B016000800000020100000000401000850
:10159000C016000810000020C80800002001000844
:1015A0001001000043000000F8FFFFFF0040404032
:1015B0004040404040404141414141404040404026
:1015C00040404040404040404040404040050202D2
:1015D0000202020202020202020202020220202091
:1015E00020202020202020020202020202029090ED
:1015F00090909090101010101010101010101010EB
:10160000101010101010101002020202020288883E
:10161000888888880808080808080808080808084A
:101620000808080808080808020202024000000032
:1016300000000000000000000000000000000000AA
:10164000000000000000000000000000000000009A
:10165000000000000000000000000000000000008A
:10166000000000000000000000000000000000007A
:10167000000000000000000000000000000000006A
:10168000000000000000000000000000000000005A
:10169000000000000000000000000000000000004A
:1016A000000000000000000000000000000000003A
:1016B00000000000400000006F12833A01000000AB
:040000050800017579
:00000001FF
