:020000040800F2
:100000004009002091010008990100089B010008A7
:1000100000000000000000000000000000000000E0
:100020000000000000000000000000009D0100082A
:1000300000000000000000009F010008A10100086E
:10004000A3010008A3010008A3010008A301000800
:10005000A3010008A3010008A3010008A3010008F0
:10006000A3010008A3010008A3010008A3010008E0
:10007000A3010008A3010008A3010008711E0008E5
:10008000A3010008D51F000851200008A3010008A3
:10009000A3010008A3010008A3010008A3010008B0
:1000A000A3010008A3010008A3010008A3010008A0
:1000B000A3010008A3010008A3010008A301000890
:1000C00000F002F800F054F80CA030C808382418EA
:1000D0002D18671EA246AB4654465D46AC4201D180
:1000E00000F046F87E460F3EB6460FCC012633425E
:1000F00000D0FB1A3343A246AB461847A4280000A1
:10010000C4280000103A02D378C878C1FAD8520740
:1001100001D330C830C101D504680C6070470000BD
:100120000023002400250026103A01D378C1FBD813
:10013000520700D330C100D50B60704710B5662957
:1001400002D102F079FB10BD002010BD1FB501F0F7
:1001500099F904000020002102F052FA401C60606E
:100160000020002102F036FAE0601FBD10B510BD7E
:1001700001F0C3FD1146FFF7E9FF01F0FBFF01F0BD
:10018000EAFD03B4FFF7F2FF03BC01F045FE0000F7
:100190000748804707480047FEE7FEE7FEE7FEE71F
:1001A000FEE7FEE704480549054A064B7047000094
:1001B000451E0008C100000840030020400900203F
:1001C00040050020400500200FB41CB5074B06AACF
:1001D0007B4469460090059801F0D3F800206946F9
:1001E00001F0E2F81CBC08BC04B01847D5110000AF
:1001F000F3B50446002081B020622046E1688847BC
:1002000000287AD0252802D06268A16871E0E168F0
:1002100020460025884706460020E0610746A06189
:100220002A2E0AD0304602F0CDF9002827D0B80097
:100230000019303E0090866119E00298BA00121948
:1002400002C8916102902046E1688847012F064666
:1002500017D1E06900281FDA202085431CE00098B0
:100260000A21806948430099801930388861204606
:10027000E1688847064602F0A5F90028EFD1012F72
:100280000AD02E2E08D12046E16888470646202055
:1002900005437F1C022FC3DBA069002803DA40421C
:1002A000A06101200543E80701D010208543002EFE
:1002B00023D030464138192803D80120C002054315
:1002C0002036204625603146029A1546FFF736FF54
:1002D00000280BD0012806D0ED1DE808C00008302A
:1002E00002908AE709E02D1D029586E76268304694
:1002F000A1689047206A401C7EE7206AFEBD70B569
:10030000064600F02BFE0468054630460A2200210E
:1003100001F050F82C6070BD10B5024A01F082F86F
:1003200010BD00000000002001E004C0091F0429E6
:10033000FBD28B0701D50280801CC90700D0027058
:10034000704700290BD0C30702D00270401C491E21
:10035000022904D3830702D50280801C891EE3E7AB
:100360000022EEE70022DFE7002203098B4273D36D
:10037000030A8B4258D3030B8B423CD3030C8B42B2
:1003800021D312E003460B437FD4002243088B4263
:1003900074D303098B425FD3030A8B4244D3030B0C
:1003A0008B4228D3030C8B420DD30902FF2212BAD1
:1003B000030C8B4202D31212090265D0030B8B424D
:1003C00019D300E0090AC30B8B4201D3CB03C01A37
:1003D0005241830B8B4201D38B03C01A5241430B12
:1003E0008B4201D34B03C01A5241030B8B4201D302
:1003F0000B03C01A5241C30A8B4201D3CB02C01A6D
:100400005241830A8B4201D38B02C01A5241430AE4
:100410008B4201D34B02C01A5241030A8B4201D3D3
:100420000B02C01A5241CDD2C3098B4201D3CB017A
:10043000C01A524183098B4201D38B01C01A524129
:1004400043098B4201D34B01C01A524103098B422D
:1004500001D30B01C01A5241C3088B4201D3CB0018
:10046000C01A524183088B4201D38B00C01A5241FB
:1004700043088B4201D34B00C01A5241411A00D2AB
:1004800001465241104670475DE0CA0F00D0494214
:10049000031000D3404253409C46002203098B4284
:1004A0002DD3030A8B4212D38901FC2212BA030A0C
:1004B0008B420CD3890192118B4208D3890192118E
:1004C0008B4204D389013AD0921100E08909C30913
:1004D0008B4201D3CB01C01A524183098B4201D315
:1004E0008B01C01A524143098B4201D34B01C01A00
:1004F000524103098B4201D30B01C01A5241C30878
:100500008B4201D3CB00C01A524183088B4201D3E6
:100510008B00C01A5241D9D243088B4201D34B0001
:10052000C01A5241411A00D2014652411046634658
:100530005B1001D34042002B00D54942704763460F
:100540005B1000D3404201B50449002802DC491C7D
:10055000084000E00846C046C04602BDFFFFFF7FDE
:1005600070477047704700000246C80FC0078143BC
:100570004B0030B54B405B009B0D20D01923DB06B0
:10058000C91801231B05994220DB0324A407042575
:100590001346AB400BD3002B04D1EB0613409B005A
:1005A000E34204D401246407002312195941FF23B4
:1005B0001B0599420BD2C9000143500F09E0CB0241
:1005C00004D501430803024305D0054830BDFF218F
:1005D000C905084330BD084607210905884330BDD9
:1005E0000000C07FF0B5F94D0C091E092C402E40CB
:1005F0002F468BB0A7437DD0B543FCD0002E7AD0D8
:10060000002CFCD00D465D40ED0F2543AC1BFF25B3
:10061000AD0464190894C502440DC9022143500D6C
:10062000DC0204430120C00701430443D2020191CC
:10063000200C110C00958C46010423468B430A9133
:1006400061460904E24D8A430991010A7D44491932
:100650008039097805464D4301266D18F605751B4E
:100660006943C90C640B891C4C436418B5012C1BED
:10067000250C2E04B4434C434D43210C69188909C1
:100680000591009DE90701D00121C90704912C467D
:1006900001996708CD072F434C08059DE10B4D4399
:1006A0002D0C29466646754302950D4645432E4658
:1006B000029D7D1BB44100950D465D4301942C0CB9
:1006C0002F040D465543AE462D0C3D430295039431
:1006D0007546049C2D04641B049406D2029C039D61
:1006E000641C002675410395029401AC70CC009FF8
:1006F0007D1B01E03EE162E1B441090400950791F0
:1007000001940599A4086143090C0C464443650B08
:10071000E7040C4666467443A646640B3C430395C7
:1007200002947446049DE4042C1B049406D2029C9B
:10073000039D641C002675410395029401AC70CCA6
:10074000009F7D1BB44101940C465C430095650FEE
:10075000E7000C465443A646640F3C4303950294BD
:100760007446049DE4002C1B049406D2029C039D55
:10077000641C002675410395029401AC70CC009F67
:100780007D1BB441AE09AF06049DC900AD092F43DE
:10079000049DA406AD060495079D3443691807918E
:1007A000059DE10B4D432D0C294666467543029588
:1007B0000D4645432E46029D7D1BB44100950D46D6
:1007C0005D4301942C0C2F040D465543AE462D0C71
:1007D0003D43029503947546049C2D04641B0494C8
:1007E00006D2029C039D641C002675410395029469
:1007F00001AC70CC009F7D1BB44101948C05069424
:10080000079C890A611800950791019C0599A40825
:100810006143090C0D464543680BEF040D466446E1
:1008200065436C0B3C43049FED047D1BAC4602D238
:100830000025641C6841009E019D371B85410846C8
:10084000584301950C46460FC5005443600F28439A
:100850006546E4002C1B02D20025401C6E41019D20
:100860003F1AB5412846BD09800628438446A009A1
:10087000BF064E020699A40676180743079D00207E
:1008800068410A99079019430020099B009060462F
:10089000FF1913434041E20F64003A43A446044663
:1008A000D71A8C41A04203D90120009020463A4635
:1008B000C70F941840416246D20F22436446640039
:1008C0000494009CBE466400D71AA44604460297CE
:1008D0008C417746002F01D1A04204D96046401CCC
:1008E0008446029A2046C40FA64694184041049AB2
:1008F0000546D20F224364466400D31A8D417146E7
:10090000002901D1A84202D928461A46641C104386
:100910000122002800D0164361020020079B89199C
:1009200004465C410223002C02DB49181346644153
:10093000089DCE0A2D145D194B056705E10A2C05AB
:100940000D1908993E43C9076940002B08D0934010
:1009500006D30022761C5141002B01D17608760087
:100960001C4A002D43DB154241D0AA433FD03046FC
:100970000BB0F0BD06180D464D41174C7642AC4108
:100980001AD395181C465C41134A6D42A24113D3F9
:10099000012252054C00D4420AD15C00D4420BD053
:1009A0004B4002D592021143E2E749004908DFE7D4
:1009B0005940C90FC90718E000200849D8E7054881
:1009C00001420DD10342F7D0F2E700000000FF071B
:1009D000F82100000000F07F0000E0FF0000F87F39
:1009E000114859400143C01241400020C0E7012393
:1009F000089A9B069A4205DC032252078918C90F00
:100A0000C907B5E7052252078918074A1143D212D0
:100A10005140ADE770B515461C4602460B462846C8
:100A20002146FFF7DFFD70BDFFFFFF7F1F22030C94
:100A300002D10F22000402D0030E03D004E00020F4
:100A4000014670470002083A030F01D10001121F4E
:100A5000830F01D18000921E002801DB4000521E4E
:100A6000120551184205C012411810467047C10FB7
:100A7000C90700D04042012292071143D6E7012165
:100A80008907D3E7F0B58B4C0F09254689B0BD43E4
:100A90007BD01D092646AE43FAD00E465E40274065
:100AA000F60F3E43254071D024012142FBD0FF24A4
:100AB000AD19A4042D1B039501252D05DB02DB0ACE
:100AC000C9022B43C90A29431E010901040F130F50
:100AD000050121431701880B820391432D098C46A0
:100AE000A90B1E438A039543B30B9A0396433F0910
:100AF000BA0B9403A74302962E467E430497B6464C
:100B00004E19D7190C460196544305977E43371B5F
:100B10007646BF1B3601B646BE0B361900967646A2
:100B2000BC043719009C01D3641C00946400002F9E
:100B300001D001263443029E049F754366467E43DE
:100B40000496760034196E0034190094029C019EBC
:100B50001C196643751BAE46069465464519059CEF
:100B600005956C43594375460891691A0191049E95
:100B700001465143A41B0491611A009C0791E106B0
:100B800005D061090122114302E072E06EE06109C3
:100B9000089D00272C0A2D066918049D7C412A0A0D
:100BA0002D066918019D6241AC0DAD026D185441CE
:100BB000079A910D920255196141029A6446584371
:100BC0005443069B059A5A43121A131B9A0E9B0113
:100BD0005B187A41010B0005C3185141220A200617
:100BE00044195A419A4200D2491C012040028142D4
:100BF00003D315230226F64302E014230326F6430B
:100C00002020C51AA9401746AF40DA400A432046C3
:100C10000399D8400914731819055118039A3843D9
:100C2000D2075140AC4009D00122944006D30022A3
:100C3000401C5141002C01D1400840001E4A934203
:100C400012D3012203989206904207DB0520400749
:100C500009181A480143C012414004E0032040072C
:100C60000818C10FC907002009B0F0BD0020F10726
:100C7000FAE705180C464C4111486D42A04115D3C6
:100C800094181A465A410E48644290410ED30120EE
:100C90004A004005824209D35A00824206D3594095
:100CA000C90F084AC90700201143DDE700200649A3
:100CB000DAE700000000FF07FE070000FFFFFF7FEC
:100CC0000000E0FF0000F07F0000F87F0121C9056F
:100CD0000123411842001B06D3185B0E0AD0C11035
:100CE0000722D206891840075242D14201D552004C
:100CF00089187047090208D50146002A03D0C10FA0
:100D0000C9070020704710467047420202D00020F9
:100D100002497047072109050143F4E70000F87F05
:100D2000F0B5FF252D04C609C209FF2704462E4051
:100D30000137CB093E4348402A402B400746002A52
:100D40006BD0002B69D0AA4267D0AB4265D0002897
:100D500000DA32460125ED0529432C430902200221
:100D6000090AD21A4B0C7F24E31A434C000A7C4434
:100D7000E35C7D242404121914145B00A218884239
:100D800001D3521C00E0400049420C465C43241150
:100D90005C43DB016415E318040A5C43C502200DC3
:100DA0000C4644436419250A5D432303EC0C0D46AD
:100DB000654300030019EB184C42A34201D35B18B2
:100DC000401CD4052018002B07D05B00C91804D3A1
:100DD000401C002901D1400840003F2189048A427B
:100DE00009D3002A08DC1106090F04D003214907A2
:100DF0004018C00FC007F0BD01224100120689183B
:100E00007F2252069142F6D205214907C84201D5F8
:100E10009010F0BDFF20C005F0BD002F00DA324673
:100E20001648AA4207D2AB4205D21902090E17D0C2
:100E3000F80FC007F0BDFF2563002D06AB42F9D8BF
:100E40004900A942F6D8AB4201D1A942F2D0A94249
:100E500001D1002101E061004908D0050843F0BD3F
:100E60001102090EFBD0FF200243D005F0BD0A4657
:100E70000146104654E70000561B00000000C07FEA
:100E800010B501469E240002CA15A307002A02D00D
:100E90001843002A04DBA21A002A0CDDD04010BD42
:100EA0001206120E01D140004008A21A03D4D0400D
:100EB00040420028F3DDFF2248001206904201D98B
:100EC000002010BDC817C043584010BD0102C21514
:100ED00004D00123DB071943002A0ADB9E239A1A58
:100EE00002D40846D0407047FF22410012069142CA
:100EF00001D900207047C017C04370471F22030C60
:100F000002D10F2200041CD0030E01D10002083AC6
:100F1000030F01D10001121F830F01D18000921E27
:100F2000002801DB4000521ED20551180212511850
:100F30001922904004D3491C002801D149084900D6
:100F400008467047C10FC90700D0404201229207EE
:100F50001143D3E701218907D0E70000004870471B
:100F600010000020FFB50C461E468FB003CA089043
:100F700009914F007D0D00D16D1E00210846002013
:100F8000C0460321099A89050840002A03DA820035
:100F9000801840080840800D01280A9002DD0020DA
:100FA000C0430A90089807430DD0F048F04928182C
:100FB00048430714189800281DD07542291E1DDDCE
:100FC0000A9842421BE01898012802D000203021E4
:100FD00004E00020F24305E02154401CB042FBDB5A
:100FE00030460022189B002121540F998B600A6023
:100FF000486013B0F0BDBD1B6D1CDFE70A9A0029E5
:1010000000DA69420BA800F017FB0BAB07CB03AB70
:1010100007C30899099800F07BFB6B4607C301469C
:10102000D4480918002D00910BDDD24903980A9A83
:1010300049424018002303A90390684600F0D8FDF8
:1010400008E003990A9A0023081803A90390684648
:1010500000F078FD6B4607C30004000C03D00020AD
:10106000C043410800E01046189A002A03D000222D
:10107000009215461EE0751E05D400F007FA3032C6
:1010800062556D1EF9D501220843079602D0002251
:101090007F1C04E02078302801D100227F1E002A26
:1010A000069787D01EE0112D07DA00F0EFF93032F5
:1010B00062556D1C02460A43F5D1084303D00098DF
:1010C000002819D00EE00021681E05E0235C625C58
:1010D00063542254401E491C8142F7DBA81B401E6A
:1010E00007950690079A18990020A0540F98079B1F
:1010F000069A81600CC07CE711260020189059E701
:10110000D21DF0B50D460446D10893B0C90003C9FD
:101110000C900D9101F040FA02460D98C00F01D0DD
:101120002D2007E02068810701D52B2002E0400731
:10113000C00F4001032A0F9001D0072A05DB0346A8
:101140002946204600F0E0F90EE12078800601D51E
:10115000E76900E006272846652D04D0662814D0EC
:10116000672D69D12DE00020112F009001DB1123A4
:1011700000E07B1C0CAA03A910A8FFF7F3FE11994D
:10118000002610987D1C0E9142E001203B460CAADF
:10119000C0070B900120009003A910A8FFF7E2FE02
:1011A000119D12981099002600280E9501D1781CE7
:1011B0000D18781B02D446427D1C761EE81B009059
:1011C0003AE0012F00DA01270020112F009001DD05
:1011D000112300E03B460CAA03A910A8FFF7C2FEAA
:1011E00011993D46109800260E91217809070BD4DD
:1011F0000E99A94200DA0D4603A9012D04DD4A1912
:10120000203AD27F302A06D0B84201DA011D04DA32
:10121000012100910FE06D1EEFE7002802DC861926
:101220002D1A03E0411CA94200DD0D46801B401C25
:1012300000900120C0070B902078000705D400988B
:10124000A84202DB0020C043009069460020C8721B
:101250000B98012102AF0337C907884225D002202D
:1012600010902B2011900B9800280BDA40420B9025
:101270002D20119006E00B9800F02BFD30317F1EE1
:101280000B9039701099481E00291090F3DC0B98D0
:101290000028F0D111987F1E38702088000501D5F4
:1012A000452000E065207F1E387001A8C01BC01DCE
:1012B0000B900F98002800D0012041190098C0170A
:1012C00009180B980818A169081A401EA061207817
:1012D000C00602D42046C046C0460F98002805D05C
:1012E0006268A1689047206A401C20622078C0068E
:1012F00025D52046C046C04621E0002E07DB0E98CB
:10130000B04204DD03A86268805DA16802E0626803
:10131000A16830209047206A761C401C206200980B
:10132000401E002800900AD100F0ACF8C068626846
:101330000168405CA1689047206A401C20622846F2
:101340006D1E0028D9DC07E062683878A1687F1C30
:101350009047206A401C20620B99481E00290B9080
:10136000F2DC2046C046C046032042E601FCFFFFF7
:10137000104D0000E1DFFFFF01694A1C026108789F
:10138000704700B58FB00291002105910549019386
:1013900079440391114604906846FEF729FF0FB087
:1013A00000BD0000E5FFFFFF0A681070521C0A60D4
:1013B00070470000F7B50F460026009C2578641C96
:1013C000002D05D000F056F80068405DC007F5D14B
:1013D0002B2D02D02D2D18D0641E3946029A20469E
:1013E00000F0D6F8002F04D03968A14201D100994D
:1013F00039607105022400290BDA4042002803DD20
:10140000FFF7ACFD0460A007FEBD0120800206438B
:10141000E3E70028F8DAFFF7A1FD04600048FEBD0D
:10142000FFFFFF7FF8B515460E46040003D12C6878
:10143000002C00D10CA4204600F03BFC04192078BD
:1014400000280ED027463146384600F021FC04190A
:101450002078002802D000202070641C38462C60C0
:10146000F8BD0027FAE700000000000000487047C0
:101470001000002010B500F005F8001D10BD00BFE1
:101480008111000000487047300000200B4670B505
:10149000024689078008084319469D08141AA94185
:1014A00025090807054308092C194841250A0106A2
:1014B0000D43010A2C194141200C0D0428430D0C49
:1014C00000194D41002140194D41C00869070843EA
:1014D000E908840F8D002543840024184D41241908
:1014E0006D41121BAB4107E00925ED432C11521948
:1014F00063410024401C61411C460A250026551BFF
:10150000B441F1D270BD0000F8B51F460446012376
:101510000068DB02032601461840072A05DB002885
:1015200001D017A506E017A504E0002801D016A5F4
:1015300000E016A5102081432160A069C01E002F85
:10154000A06101D0401EA0612046C046C046002FC9
:1015500009D038466268A1689047206A401C206222
:10156000C01C206206E0206AFAE762682878A16859
:101570006D1C9047761EF8D22046C046C046F8BD86
:101580004E414E006E616E00494E4600696E660027
:10159000F7B5154682B00027029C2078641C01979D
:1015A000302802D0002D15D015E020780127641CCA
:1015B000782804D0582802D0002D09D00BE0002D47
:1015C00001D0102D07D1207800271025641C02E0DF
:1015D000082500E00A250026009610E00099012762
:1015E0006943081829467143020C80B200908E1896
:1015F0003804864201D3012001902078641C2946DA
:1016000000F09AFB0028E9DA0398002805D0002FA3
:1016100001D0641E00E0029C04600198002806D0FE
:10162000FFF79CFC02210160C81E05B0F0BD0099C7
:1016300030040843F9E70000F7B516468AB033488E
:1016400078446C4603467C33C06F5A689B680DC46F
:101650002E487844763003AC0DC80DC43720C00145
:10166000081837211B30FEF78DFE05460C46803DDD
:101670001B3C02D56442012000E0002000270990B5
:1016800010E0E0070CD00C20204978437944324622
:101690004C3941186846012300F054FA6B4607C3E1
:1016A00064107F1C002CECD1184F7F442E3F16E0B5
:1016B000E80712D02001C0190EC8069108930792BE
:1016C0000068F04201D1981908903246012306A91A
:1016D00003A800F037FA03AB07C36D10641C002D9C
:1016E000E6D10998002806D032466946012303A8AE
:1016F00000F07EFA05E001233246694603A800F0B7
:1017000021FA0A9B07C30DB0F0BD0000C41200000F
:10171000034640000A4610B5400D0BD00121C90711
:101720000F24A40200191C0364082143540D214313
:10173000D20207E000210120F2E7D40F4900214343
:101740005200401E0029F8DADB0FDB07184310BDFA
:10175000FFB50D46144685B04868516800F004FF97
:1017600000910190A868A16800F0FEFE029103902C
:10177000A868616800F0F8FE029A1218824202928C
:1017800001D2012000E00020019A0B18D218002895
:10179000019202D08A4202D903E08A4201D201209A
:1017A00000E000200099081800906868A16800F027
:1017B000DBFE029A12188242029201D2012000E05E
:1017C0000020019A0B18D2180028019202D08A42F8
:1017D00002D903E08A4201D2012000E000200099F2
:1017E000081800902868216840004900400849080E
:1017F0004018FA49471814E001994000C90F0843FE
:101800000090019802994000C90F08430190029886
:1018100003994000C90F08430290039840007F1EBF
:10182000039000980028E7DA0898002801D0EC4ED1
:1018300000E00026B74201DA012000E00020002885
:1018400004902AD0F71BF806C00E15D0029B202169
:10185000091A039A8B401A430392029A019BC240D1
:101860008B401A430292019A009BC2408B40009920
:101870001A430192C14000917B110DD06F460320A5
:10188000C11A03D500218200B95003E08A0081000B
:10189000BA587A50401EF3D537460398029900286B
:1018A00000D00120014308980291002808460CD07E
:1018B000002800D001200199019A4905084301211F
:1018C000D20AC902D202019200E001210E9B01223C
:1018D000D207012B02D0002B03D013E0002807D140
:1018E00020E0904204D890420CD1019B0B4209D0D9
:1018F000019B5918019105D10099491C009101D112
:101900007F1C009200280DD0102108460020C04600
:101910000498002806D00F98002803D00821084614
:101920000020C04628682168019B009A4840C10FEA
:101930000598C90739430EC009B0F0BDFFB587B09F
:10194000099A089808995368926840688968964689
:101950000022039317469446089A12685300099A86
:101960005B081268520052089A1A9E4BD4180A9AC1
:10197000002A01D0352200E04022069200220123F5
:1019800015460492DB07059324E0002D05D175462A
:101990000346039E4D1BB34109D375466646039B20
:1019A000491B049D9841059B7519AC465F416346F0
:1019B0003B4308D0059B049EDD0776082E435B0859
:1019C0000496059301E0521E641EC50FED074918E9
:1019D0004041521C069B9A42D7DB002D04D175462C
:1019E000039A6B1A824101D203200CE0039A0B4642
:1019F0006B404240134303D0014303D0012002E077
:101A0000022000E000206146019100210097029130
:101A10000A99002905D0614640020143704B0191AB
:101A200002E08007002302909C4201DA012000E0DE
:101A3000002007003AD01A1BD006C00E15D0029D18
:101A40002021019C091AC5408C402543029C8C40F2
:101A500000D001242543019C0295009DC4408D4087
:101A600000992C430194C140009154111DD06D4642
:101A70000221002202290CD10320001B07E00028CC
:101A800004DB8600AE59002E00D00122401C032842
:101A9000F5DB081B02D588002A5004E08000285896
:101AA00010438A00A850491EE3D51C460A98002816
:101AB00002980CD0002800D001200199019A490514
:101AC00008430121D20AC902D202019200E0012199
:101AD000109B0122D207012B02D0002B03D013E070
:101AE000002807D11FE0904204D890420CD1019BFE
:101AF0000B4209D0019B5918019105D10099491C4D
:101B0000009101D1641C009200280CD010210846DD
:101B10000020C046002F06D01198002803D00821CD
:101B200008460020C04608980999019A009B006861
:101B300009684840C10F0798C907214382600AC05D
:101B40000BB0F0BD00B585B0019300920A46014686
:101B5000002302A8FFF7FCFD02A807C805B000BDDE
:101B6000FFB50A461F4685B00799019301230091EE
:101B7000014602A8FFF7ECFD02990398049ECA0FE4
:101B80004900D20700920F22490892028C1A0021C4
:101B9000002800DB0C46450013486D08844214D32E
:101BA000079A002A04DA441E0026104DF64302E08C
:101BB00004460D460E46102108460020C046002F60
:101BC00003D0042108460020C0462005E90A084346
:101BD000009908436905F20A1143ADE602C0FFFF10
:101BE000013C0000FF3F0000FF070000FFFFFF7FF8
:101BF00000B585B0019300920A460146002302A871
:101C0000FFF79CFE02A807C8A8E7FFB50A461F46D3
:101C100085B00799019301230091014602A8FFF7BF
:101C20008DFE02990398049ECA0F4900D2070092C4
:101C30000F22490892028C1A0021002800DB0C4672
:101C4000450011486D08844214D3079A002A04DA2B
:101C5000441E00260D4DF64302E004460D460E4696
:101C6000102108460020C046002F03D0042108465A
:101C70000020C0462005E90A084300990843690589
:101C8000F20A114358E60000FF070000FFFFFF7F44
:101C900030B503461D78002D03D00A4603E0AC4260
:101CA00001D1181A30BD1478521C002CF7D15B1CDE
:101CB000F0E730B503461D78002D08D00A461478A9
:101CC000521C002C03D0AC42F9D15B1CF3E7181A6C
:101CD00030BD01468008081A02091018020A1018BF
:101CE000020C1018C008820012185200891A01E074
:101CF000401C0A390A29FBD270477546FFF7B6FB2C
:101D0000AE46050069465346C008C000854618B077
:101D100020B5FEF747FA60BCB64600260027C0C5CE
:101D2000C0C5C0C5C0C5C0C5C0C5C0C5C0C5403D93
:101D3000490849008D4670473A2800D230382023A0
:101D400002469A43412A01D310463738884201D3CC
:101D50000020C043704710B50446C046C046204628
:101D6000FEF70FFA10BD000082078B079A423FD1A1
:101D700070B5920F0AD0032402780B78401C491CDE
:101D8000002A33D09A4231D12042F5D1214EF401BC
:101D900004C808C9951B9543254018D19A420FD114
:101DA00004C808C9951B9543254010D19A4207D114
:101DB00004C808C9951B9543254008D19A42E7D02D
:101DC00012BA1BBA01209A4200D2404270BD12BA28
:101DD0001BBA2DBA18241000E0401900E140401A47
:101DE00005D12E00E64002D1083CF4D1D01A70BDD6
:101DF00002780B78401C491C002A09D09A4207D16E
:101E000002780B78401C491C002A01D09A42EFD07E
:101E1000D01A70470101010101491820ABBEFEE74D
:101E20002600020070470000D148042101620268C8
:101E30000A4302600146083909684907FAD5806BF0
:101E400080B2704770477D21C900091A01229007AE
:101E500081634169114341610169914301610168F5
:101E600011430160016A10220A43026270470000B8
:101E700070B51B4D2868C00700D170BD28680124CB
:101E8000A04328606848416901290ED167490026AE
:101E90004E600A6822430A60806900F053FB6E615D
:101EA000103D2868A043286070BD416A01290DD00B
:101EB000816A012907D15D490A6822430A60806965
:101EC00000F040FB70BD816D0129D6D157490A68E9
:101ED000102313430B60806900F034FB70BDC046D3
:101EE0001000004070B527492F20086101208202B0
:101EF0001346193B4B611346E03B0B620B1F1C68FA
:101F000004431C600B46083B1C6884431C600B4662
:101F1000183B1C681025AC431C60072424030D6883
:101F2000A5430D600C687025AC430C600F24E402DF
:101F30000D6825430D600D68782635430D604D68AA
:101F400035434D604D6825434D600C6814430C606B
:101F50000C6804252C430C604C682C434C604C6886
:101F600014434C601A68082414431C600C390A6836
:101F700002430A60196880220A431A60C003444978
:101F8000086070BD180000401048002181621049AF
:101F90000A466D32C2624163816301214161026977
:101FA0008A43026182697823134383610F22D2023C
:101FB0008369134383610268802313430360C2680B
:101FC0000A43C26002680A4302607047000400408E
:101FD0002A08000070B5134C2068C00721D0216882
:101FE000012081432160104D6969012919D18107C0
:101FF0000968C90715D10D4900224A60C64308681F
:1020000030400860E86900F08BFA286AFFF71BFF90
:10201000103C2068304020601548016820220A43A7
:10202000026070BD101000407000002020040040CD
:102030000648002141602F21C1610168012211433E
:1020400001605004124908607047C0460C100040FF
:1020500006480168C90708D0016801229143016060
:10206000034801682022914301607047101400402A
:1020700014000048054800214160C1610168012247
:102080001143016090040249086070470C1400403D
:1020900000E100E001204104334A13680B43136060
:1020A00080035168014351600F2081040920C0065C
:1020B00002688A4302600521C90402680A4302607B
:1020C000FF210901426A8A43426211210901426AE1
:1020D0000A43426290310248C1600D21016070479D
:1020E00000380140017800290AD0D34A13681B0642
:1020F000FCD5C9B29181431C417800291846F5D11D
:102100007047C04610B50120420417490B681343BD
:102110000B600922D206136803241C431460136861
:1021200030241C43146042024B6813434B60C104CB
:102130000E4A13680B4313600D4905220A62CA68F0
:1021400007231343CB60C2070B6813430B600A6875
:10215000002AFCD40A6802430A600846083800686E
:10216000C007FAD010BDC046141002400827014035
:102170000824014086B00126F004AB4C21690143DC
:1021800021613003A9490A6802430A60A84D002072
:102190000390E860A74F3868FEF7D4FE01467868E0
:1021A00000F08AFAA860FFF775FF201F0168049607
:1021B0003143016001688907FCD50F218904226839
:1021C0008A432260216821600521C90422680A43EC
:1021D00022600499090602680A43026001688901C5
:1021E000FCD5206802210143216020680C210140B8
:1021F0000829FAD17F20000121688143216000F085
:1022000045F9FFF76FFEFFF7BFFEFFF711FFFFF77E
:1022100031FFFFF777FF192000016426C8248E499B
:1022200010310591049929612A46143252C228625C
:10223000039882490860286AFFF705FE00273846A0
:10224000FFF7F2FDFEF786FE04467D4900F034FA02
:102250007321CE05314600F02FFAFEF711FE68809B
:102260008120C105204600F027FA314600F024FA0B
:10227000744900F0DBF97449FEF752FDE862022070
:10228000FFF7D2FDFEF766FE704900F015FA7049BF
:10229000FEF746FD0446FEF719FE686320466D49C9
:1022A00000F0C4F98321C90500F006FA2863FEF79F
:1022B0000DFD04460E46E86AFEF708FD02460B4691
:1022C00000940196059C204664A1FDF77DFF204601
:1022D000FFF708FF58490868800641D5086880065E
:1022E000FCD509892B787E2B0BD85F48C1545A1C2A
:1022F0002A70C9B20A2903D07E2B134630D100E0E0
:1023000013465948C754544EC15D0A2904D0F155AB
:102310007F1C802FF8D180270024F4558021FEF700
:1023200021F8524F3C607C60BC60FC602C703046F1
:102330004F49FDF7F1FF002811D06E680F2E0EDC1B
:10234000FDF7DDFFB1007850701C6860002048493F
:10235000FDF7E2FF002802D06E68102EF0DB6C6003
:10236000424A106800284DD0E96801283FD1002971
:102370003DD13E4847683846FEF779FB3D4A3E4B23
:10238000FEF780FBFEF7F0F80446FEF79FFC3B4AA1
:102390003B4BFEF727F900223A4BFEF773FBFEF7A3
:1023A000E3F82864314880683049C968C2176A6612
:1023B0002866C817E866A966AF631E4800687843B8
:1023C000FEF7C0FD6864EC632F49FEF7A9FCA86422
:1023D000A968FEF7A5FCE864286CFEF751FDA96E1C
:1023E000EA6E2A6EA961EA612862686E0AE0022834
:1023F00004D1002902D15068286503E0032801D1E7
:1024000050686865686D012800D017E72869296D54
:10241000014300D012E7E86EAC6E686E2E6E286C39
:10242000FEF72EFDFEE6C0460410024000080048FC
:1024300070000020040000201C38014024000040EF
:1024400066668640A470FDBF17B7D13900004040D2
:1024500000F07F459A99B9BFE0000020252E326632
:102460002C252E32660A000030010020B001002029
:102470009C290008E882FA96395D663F333333338E
:102480003333D33F00408F400000AD4310B50120EF
:1024900043041F490A46083A14681C4314600B6839
:1024A00003430B600B6802241C430C608304146814
:1024B0001C4314600A68102313430B600B6820222E
:1024C00013430B6005218B020921C9060C681C43CC
:1024D0000C600B680C24A3430B600B6808241C439E
:1024E0000C600B6A13430B620A490A680A4B1340DB
:1024F0000B600A68094B13430B60112212040B6A2C
:1025000013430B6240024A6A02434A6210BDC0464E
:102510001C10024000040048FFF0CFFF000A20001A
:1025200007490A68D2070AD10A6801239A430A6058
:10253000401EC8620020486208681843086070475F
:102540000014004007490A68D2070AD10A6801232B
:102550009A430A60401EC862002048620868184317
:102560000860704700100040F8B5040C8BB2264696
:1025700082B25E43104658430D0C370C36040021DE
:102580008019164679416E43370C36048019264669
:1025900079416E438919F8BD4900CA02024310000F
:1025A00000D004204A0D01D001221043044A490DF5
:1025B000914201D102210843012800D10520704732
:1025C000FF07000030380A2801D2012070470020A0
:1025D0007047000010B500290AD00878002807D0FD
:1025E00005487844FFF7C0FB002801D0002010BD4B
:1025F0000248784410BD0000DE030000D60300004E
:1026000010B500290AD00878002807D0054878447A
:10261000FFF7AAFB002801D0002010BD0248784433
:1026200010BD0000CE030000C603000070B50125F8
:10263000ED0704004C4020D4441A01D2001B0919B4
:10264000C60D4B00F2B2FF2A29D01B0E2CD000027F
:102650000C0228432C43D31ADC40051910D2280A57
:1026600002D3401C6D0611D0761EF6058019FF2A94
:1026700000DA70BDC00DC00570BD694000F07AF889
:1026800001200543C541521C761CE8E764089C40C4
:10269000C90161408900E7D10124A043E4E71B0E92
:1026A000440200D0034870BD002AFCD1C00FC0070F
:1026B00070BD00BF0000C07F70B5420064414B0098
:1026C0005C41120E39D01B0E38D0FF2A3CD0FF2BB4
:1026D0003AD0D2187F3A40024902400A490A4518C6
:1026E000ED0106004E43000A090A48430104731A2B
:1026F0004019190C4318990F04D05B0801214907B0
:102700005B1A521CD80904D3401CF50301D19D0665
:1027100007D0FF2A08D2D50506D0E4072043401988
:1027200070BD0125A843F4E7002A01DCE00770BD75
:102730002402FF202043C00570BD1B0EFF2A03D0DA
:10274000FF2B01D0E00770BDFF2636064500B542DD
:1027500006D84D00B54203D8D218FF2A00D0E7E7CB
:10276000004870BD0000C07F70B50125ED07040072
:102770004C4022D4441A02D26C40001B0919C60DE9
:102780004B00F2B2FF2A4BD01B0E50D000020C02BD
:10279000A8432C43D31ADC40051B05D5AD0019D343
:1027A0006D08761E521E37D0F605280A01D2801910
:1027B00070BD70416D0603D070BD6940FFF73CFFEE
:1027C0009C4009026140490001D0401E70BD0124B7
:1027D000A04370BD6D081DD001202B0C01D12D042C
:1027E00010302B0E01D12D0208302B0F01D12D01FD
:1027F000001DAB0F01D1AD00801CEB0F01D16D00AE
:10280000401C361A121A6D00680AF5054019012A93
:1028100002DB70BD002070BDC036300AC00770BD3D
:102820001B0E440201D1FF2B00D1024870BD002ACB
:10283000F0D070BD0000C07F03B4024878448446E5
:1028400003BC6047C1E8FFFF80807F7E7D7C7B7A90
:102850007978777676757473727171706F6E6E6D4C
:102860006C6C6B6A6A6968686766666564646363F2
:1028700062616160605F5F5E5E5D5D5C5C5B5B5A78
:102880005A595958585757565655555554545353E5
:1028900052525251515050504F4F4F4E4E4D4D4D40
:1028A0004C4C4C4B4B4B4A4A4A494949484848478B
:1028B00047474746464645454544444444434343C9
:1028C00043424242424141418182838485868788D6
:1028D000898B8C8D8E8F919293959697999A9C9DCA
:1028E0009FA0A2A3A5A7A8AAACAEB0B2B3B5B7B932
:1028F000BCBEC0C2C5C7C9CCCED1D4D7D9DCDFE2FB
:10290000E6E9ECF0F3F7FAFE02400000000000A058
:102910000000000005400000000000C800000000AA
:102920000C4000000000409C000000001940000026
:102930000020BCBE0000000034400000BFC91B8E58
:1029400000000004B5400000504BCFD06607E2CF36
:10295000010000006C4100003E8251AADFEEA73466
:1029600001000000D9420000DCB5A0E23A301F9718
:10297000FFFFFFFFB4450000FD25A0C8E9A3C14F3C
:10298000FFFFFFFFFF3F000000000080000000008D
:10299000FF3F000000000080000000002C0000004D
:1029A000EC2A0008000000200C00000004010008D0
:1029B000F82A00081000002030090000200100085B
:1029C0001C00000043000000F8FFFFFF0C000000A7
:1029D0000E0000000F0000002E000000100100009B
:1029E00043000000F8FFFFFF0040404040404040EF
:1029F00040404141414141404040404040404040D2
:102A00004040404040404040400502020202020275
:102A100002020202020202020220202020202020C4
:102A200020202002020202020202909090909090D8
:102A30001010101010101010101010101010101096
:102A4000101010100202020202028888888888880A
:102A500008080808080808080808080808080808F6
:102A600008080808020202024000000000000000FE
:102A70000000000000000000000000000000000056
:102A80000000000000000000000000000000000046
:102A90000000000000000000000000000000000036
:102AA0000000000000000000000000000000000026
:102AB0000000000000000000000000000000000016
:102AC0000000000000000000000000000000000006
:102AD00000000000000000000000000000000000F6
:102AE00000000000000000000000000000000000E6
:082AF000400000006F12833A60
:04000005080001915D
:00000001FF
